{
  "_format": "hh-sol-artifact-1",
  "contractName": "VSASummer23NFT",
  "sourceName": "contracts/VSASummer23NFT.sol",
  "abi": [
    {
      "inputs": [
        {
          "internalType": "address",
          "name": "initialOwner",
          "type": "address"
        }
      ],
      "stateMutability": "nonpayable",
      "type": "constructor"
    },
    {
      "inputs": [],
      "name": "ERC721EnumerableForbiddenBatchMint",
      "type": "error"
    },
    {
      "inputs": [
        {
          "internalType": "address",
          "name": "sender",
          "type": "address"
        },
        {
          "internalType": "uint256",
          "name": "tokenId",
          "type": "uint256"
        },
        {
          "internalType": "address",
          "name": "owner",
          "type": "address"
        }
      ],
      "name": "ERC721IncorrectOwner",
      "type": "error"
    },
    {
      "inputs": [
        {
          "internalType": "address",
          "name": "operator",
          "type": "address"
        },
        {
          "internalType": "uint256",
          "name": "tokenId",
          "type": "uint256"
        }
      ],
      "name": "ERC721InsufficientApproval",
      "type": "error"
    },
    {
      "inputs": [
        {
          "internalType": "address",
          "name": "approver",
          "type": "address"
        }
      ],
      "name": "ERC721InvalidApprover",
      "type": "error"
    },
    {
      "inputs": [
        {
          "internalType": "address",
          "name": "operator",
          "type": "address"
        }
      ],
      "name": "ERC721InvalidOperator",
      "type": "error"
    },
    {
      "inputs": [
        {
          "internalType": "address",
          "name": "owner",
          "type": "address"
        }
      ],
      "name": "ERC721InvalidOwner",
      "type": "error"
    },
    {
      "inputs": [
        {
          "internalType": "address",
          "name": "receiver",
          "type": "address"
        }
      ],
      "name": "ERC721InvalidReceiver",
      "type": "error"
    },
    {
      "inputs": [
        {
          "internalType": "address",
          "name": "sender",
          "type": "address"
        }
      ],
      "name": "ERC721InvalidSender",
      "type": "error"
    },
    {
      "inputs": [
        {
          "internalType": "uint256",
          "name": "tokenId",
          "type": "uint256"
        }
      ],
      "name": "ERC721NonexistentToken",
      "type": "error"
    },
    {
      "inputs": [
        {
          "internalType": "address",
          "name": "owner",
          "type": "address"
        },
        {
          "internalType": "uint256",
          "name": "index",
          "type": "uint256"
        }
      ],
      "name": "ERC721OutOfBoundsIndex",
      "type": "error"
    },
    {
      "inputs": [],
      "name": "EnforcedPause",
      "type": "error"
    },
    {
      "inputs": [],
      "name": "ExpectedPause",
      "type": "error"
    },
    {
      "inputs": [
        {
          "internalType": "address",
          "name": "owner",
          "type": "address"
        }
      ],
      "name": "OwnableInvalidOwner",
      "type": "error"
    },
    {
      "inputs": [
        {
          "internalType": "address",
          "name": "account",
          "type": "address"
        }
      ],
      "name": "OwnableUnauthorizedAccount",
      "type": "error"
    },
    {
      "anonymous": false,
      "inputs": [
        {
          "indexed": true,
          "internalType": "address",
          "name": "owner",
          "type": "address"
        },
        {
          "indexed": true,
          "internalType": "address",
          "name": "approved",
          "type": "address"
        },
        {
          "indexed": true,
          "internalType": "uint256",
          "name": "tokenId",
          "type": "uint256"
        }
      ],
      "name": "Approval",
      "type": "event"
    },
    {
      "anonymous": false,
      "inputs": [
        {
          "indexed": true,
          "internalType": "address",
          "name": "owner",
          "type": "address"
        },
        {
          "indexed": true,
          "internalType": "address",
          "name": "operator",
          "type": "address"
        },
        {
          "indexed": false,
          "internalType": "bool",
          "name": "approved",
          "type": "bool"
        }
      ],
      "name": "ApprovalForAll",
      "type": "event"
    },
    {
      "anonymous": false,
      "inputs": [
        {
          "indexed": true,
          "internalType": "address",
          "name": "previousOwner",
          "type": "address"
        },
        {
          "indexed": true,
          "internalType": "address",
          "name": "newOwner",
          "type": "address"
        }
      ],
      "name": "OwnershipTransferred",
      "type": "event"
    },
    {
      "anonymous": false,
      "inputs": [
        {
          "indexed": false,
          "internalType": "address",
          "name": "account",
          "type": "address"
        }
      ],
      "name": "Paused",
      "type": "event"
    },
    {
      "anonymous": false,
      "inputs": [
        {
          "indexed": true,
          "internalType": "address",
          "name": "from",
          "type": "address"
        },
        {
          "indexed": true,
          "internalType": "address",
          "name": "to",
          "type": "address"
        },
        {
          "indexed": true,
          "internalType": "uint256",
          "name": "tokenId",
          "type": "uint256"
        }
      ],
      "name": "Transfer",
      "type": "event"
    },
    {
      "anonymous": false,
      "inputs": [
        {
          "indexed": false,
          "internalType": "address",
          "name": "account",
          "type": "address"
        }
      ],
      "name": "Unpaused",
      "type": "event"
    },
    {
      "inputs": [
        {
          "internalType": "address",
          "name": "to",
          "type": "address"
        },
        {
          "internalType": "uint256",
          "name": "tokenId",
          "type": "uint256"
        }
      ],
      "name": "approve",
      "outputs": [],
      "stateMutability": "nonpayable",
      "type": "function"
    },
    {
      "inputs": [
        {
          "internalType": "address",
          "name": "owner",
          "type": "address"
        }
      ],
      "name": "balanceOf",
      "outputs": [
        {
          "internalType": "uint256",
          "name": "",
          "type": "uint256"
        }
      ],
      "stateMutability": "view",
      "type": "function"
    },
    {
      "inputs": [
        {
          "internalType": "uint256",
          "name": "tokenId",
          "type": "uint256"
        }
      ],
      "name": "burn",
      "outputs": [],
      "stateMutability": "nonpayable",
      "type": "function"
    },
    {
      "inputs": [
        {
          "internalType": "uint256",
          "name": "tokenId",
          "type": "uint256"
        }
      ],
      "name": "getApproved",
      "outputs": [
        {
          "internalType": "address",
          "name": "",
          "type": "address"
        }
      ],
      "stateMutability": "view",
      "type": "function"
    },
    {
      "inputs": [
        {
          "internalType": "address",
          "name": "owner",
          "type": "address"
        },
        {
          "internalType": "address",
          "name": "operator",
          "type": "address"
        }
      ],
      "name": "isApprovedForAll",
      "outputs": [
        {
          "internalType": "bool",
          "name": "",
          "type": "bool"
        }
      ],
      "stateMutability": "view",
      "type": "function"
    },
    {
      "inputs": [],
      "name": "name",
      "outputs": [
        {
          "internalType": "string",
          "name": "",
          "type": "string"
        }
      ],
      "stateMutability": "view",
      "type": "function"
    },
    {
      "inputs": [],
      "name": "owner",
      "outputs": [
        {
          "internalType": "address",
          "name": "",
          "type": "address"
        }
      ],
      "stateMutability": "view",
      "type": "function"
    },
    {
      "inputs": [
        {
          "internalType": "uint256",
          "name": "tokenId",
          "type": "uint256"
        }
      ],
      "name": "ownerOf",
      "outputs": [
        {
          "internalType": "address",
          "name": "",
          "type": "address"
        }
      ],
      "stateMutability": "view",
      "type": "function"
    },
    {
      "inputs": [],
      "name": "pause",
      "outputs": [],
      "stateMutability": "nonpayable",
      "type": "function"
    },
    {
      "inputs": [],
      "name": "paused",
      "outputs": [
        {
          "internalType": "bool",
          "name": "",
          "type": "bool"
        }
      ],
      "stateMutability": "view",
      "type": "function"
    },
    {
      "inputs": [],
      "name": "renounceOwnership",
      "outputs": [],
      "stateMutability": "nonpayable",
      "type": "function"
    },
    {
      "inputs": [
        {
          "internalType": "address",
          "name": "to",
          "type": "address"
        }
      ],
      "name": "safeMint",
      "outputs": [],
      "stateMutability": "nonpayable",
      "type": "function"
    },
    {
      "inputs": [
        {
          "internalType": "address",
          "name": "from",
          "type": "address"
        },
        {
          "internalType": "address",
          "name": "to",
          "type": "address"
        },
        {
          "internalType": "uint256",
          "name": "tokenId",
          "type": "uint256"
        }
      ],
      "name": "safeTransferFrom",
      "outputs": [],
      "stateMutability": "nonpayable",
      "type": "function"
    },
    {
      "inputs": [
        {
          "internalType": "address",
          "name": "from",
          "type": "address"
        },
        {
          "internalType": "address",
          "name": "to",
          "type": "address"
        },
        {
          "internalType": "uint256",
          "name": "tokenId",
          "type": "uint256"
        },
        {
          "internalType": "bytes",
          "name": "data",
          "type": "bytes"
        }
      ],
      "name": "safeTransferFrom",
      "outputs": [],
      "stateMutability": "nonpayable",
      "type": "function"
    },
    {
      "inputs": [
        {
          "internalType": "address",
          "name": "operator",
          "type": "address"
        },
        {
          "internalType": "bool",
          "name": "approved",
          "type": "bool"
        }
      ],
      "name": "setApprovalForAll",
      "outputs": [],
      "stateMutability": "nonpayable",
      "type": "function"
    },
    {
      "inputs": [
        {
          "internalType": "bytes4",
          "name": "interfaceId",
          "type": "bytes4"
        }
      ],
      "name": "supportsInterface",
      "outputs": [
        {
          "internalType": "bool",
          "name": "",
          "type": "bool"
        }
      ],
      "stateMutability": "view",
      "type": "function"
    },
    {
      "inputs": [],
      "name": "symbol",
      "outputs": [
        {
          "internalType": "string",
          "name": "",
          "type": "string"
        }
      ],
      "stateMutability": "view",
      "type": "function"
    },
    {
      "inputs": [
        {
          "internalType": "uint256",
          "name": "index",
          "type": "uint256"
        }
      ],
      "name": "tokenByIndex",
      "outputs": [
        {
          "internalType": "uint256",
          "name": "",
          "type": "uint256"
        }
      ],
      "stateMutability": "view",
      "type": "function"
    },
    {
      "inputs": [
        {
          "internalType": "address",
          "name": "owner",
          "type": "address"
        },
        {
          "internalType": "uint256",
          "name": "index",
          "type": "uint256"
        }
      ],
      "name": "tokenOfOwnerByIndex",
      "outputs": [
        {
          "internalType": "uint256",
          "name": "",
          "type": "uint256"
        }
      ],
      "stateMutability": "view",
      "type": "function"
    },
    {
      "inputs": [
        {
          "internalType": "uint256",
          "name": "tokenId",
          "type": "uint256"
        }
      ],
      "name": "tokenURI",
      "outputs": [
        {
          "internalType": "string",
          "name": "",
          "type": "string"
        }
      ],
      "stateMutability": "view",
      "type": "function"
    },
    {
      "inputs": [],
      "name": "totalSupply",
      "outputs": [
        {
          "internalType": "uint256",
          "name": "",
          "type": "uint256"
        }
      ],
      "stateMutability": "view",
      "type": "function"
    },
    {
      "inputs": [
        {
          "internalType": "address",
          "name": "from",
          "type": "address"
        },
        {
          "internalType": "address",
          "name": "to",
          "type": "address"
        },
        {
          "internalType": "uint256",
          "name": "tokenId",
          "type": "uint256"
        }
      ],
      "name": "transferFrom",
      "outputs": [],
      "stateMutability": "nonpayable",
      "type": "function"
    },
    {
      "inputs": [
        {
          "internalType": "address",
          "name": "newOwner",
          "type": "address"
        }
      ],
      "name": "transferOwnership",
      "outputs": [],
      "stateMutability": "nonpayable",
      "type": "function"
    },
    {
      "inputs": [],
      "name": "unpause",
      "outputs": [],
      "stateMutability": "nonpayable",
      "type": "function"
    }
  ],
  "bytecode": "0x60806040523480156200001157600080fd5b5060405162003311380380620033118339818101604052810190620000379190620002ab565b806040518060400160405280600e81526020017f56534153756d6d657232334e46540000000000000000000000000000000000008152506040518060400160405280600581526020017f56534132330000000000000000000000000000000000000000000000000000008152508160009081620000b5919062000557565b508060019081620000c7919062000557565b5050506000600a60006101000a81548160ff021916908315150217905550600073ffffffffffffffffffffffffffffffffffffffff168173ffffffffffffffffffffffffffffffffffffffff16036200015a5760006040517f1e4fbdf70000000000000000000000000000000000000000000000000000000081526004016200015191906200064f565b60405180910390fd5b6200016b816200017b60201b60201c565b506001600b81905550506200066c565b6000600a60019054906101000a900473ffffffffffffffffffffffffffffffffffffffff16905081600a60016101000a81548173ffffffffffffffffffffffffffffffffffffffff021916908373ffffffffffffffffffffffffffffffffffffffff1602179055508173ffffffffffffffffffffffffffffffffffffffff168173ffffffffffffffffffffffffffffffffffffffff167f8be0079c531659141344cd1fd0a4f28419497f9722a3daafe3b4186f6b6457e060405160405180910390a35050565b600080fd5b600073ffffffffffffffffffffffffffffffffffffffff82169050919050565b6000620002738262000246565b9050919050565b620002858162000266565b81146200029157600080fd5b50565b600081519050620002a5816200027a565b92915050565b600060208284031215620002c457620002c362000241565b5b6000620002d48482850162000294565b91505092915050565b600081519050919050565b7f4e487b7100000000000000000000000000000000000000000000000000000000600052604160045260246000fd5b7f4e487b7100000000000000000000000000000000000000000000000000000000600052602260045260246000fd5b600060028204905060018216806200035f57607f821691505b60208210810362000375576200037462000317565b5b50919050565b60008190508160005260206000209050919050565b60006020601f8301049050919050565b600082821b905092915050565b600060088302620003df7fffffffffffffffffffffffffffffffffffffffffffffffffffffffffffffffff82620003a0565b620003eb8683620003a0565b95508019841693508086168417925050509392505050565b6000819050919050565b6000819050919050565b600062000438620004326200042c8462000403565b6200040d565b62000403565b9050919050565b6000819050919050565b620004548362000417565b6200046c62000463826200043f565b848454620003ad565b825550505050565b600090565b6200048362000474565b6200049081848462000449565b505050565b5b81811015620004b857620004ac60008262000479565b60018101905062000496565b5050565b601f8211156200050757620004d1816200037b565b620004dc8462000390565b81016020851015620004ec578190505b62000504620004fb8562000390565b83018262000495565b50505b505050565b600082821c905092915050565b60006200052c600019846008026200050c565b1980831691505092915050565b600062000547838362000519565b9150826002028217905092915050565b6200056282620002dd565b67ffffffffffffffff8111156200057e576200057d620002e8565b5b6200058a825462000346565b62000597828285620004bc565b600060209050601f831160018114620005cf5760008415620005ba578287015190505b620005c6858262000539565b86555062000636565b601f198416620005df866200037b565b60005b828110156200060957848901518255600182019150602085019450602081019050620005e2565b8683101562000629578489015162000625601f89168262000519565b8355505b6001600288020188555050505b505050505050565b620006498162000266565b82525050565b60006020820190506200066660008301846200063e565b92915050565b612c95806200067c6000396000f3fe608060405234801561001057600080fd5b50600436106101585760003560e01c80635c975abb116100c357806395d89b411161007c57806395d89b411461039f578063a22cb465146103bd578063b88d4fde146103d9578063c87b56dd146103f5578063e985e9c514610425578063f2fde38b1461045557610158565b80635c975abb146102ef5780636352211e1461030d57806370a082311461033d578063715018a61461036d5780638456cb59146103775780638da5cb5b1461038157610158565b80632f745c59116101155780632f745c59146102315780633f4ba83a1461026157806340d097c31461026b57806342842e0e1461028757806342966c68146102a35780634f6ccce7146102bf57610158565b806301ffc9a71461015d57806306fdde031461018d578063081812fc146101ab578063095ea7b3146101db57806318160ddd146101f757806323b872dd14610215575b600080fd5b61017760048036038101906101729190612246565b610471565b604051610184919061228e565b60405180910390f35b610195610483565b6040516101a29190612339565b60405180910390f35b6101c560048036038101906101c09190612391565b610515565b6040516101d291906123ff565b60405180910390f35b6101f560048036038101906101f09190612446565b610531565b005b6101ff610547565b60405161020c9190612495565b60405180910390f35b61022f600480360381019061022a91906124b0565b610554565b005b61024b60048036038101906102469190612446565b610656565b6040516102589190612495565b60405180910390f35b6102696106ff565b005b61028560048036038101906102809190612503565b610711565b005b6102a1600480360381019061029c91906124b0565b610742565b005b6102bd60048036038101906102b89190612391565b610762565b005b6102d960048036038101906102d49190612391565b610779565b6040516102e69190612495565b60405180910390f35b6102f76107ef565b604051610304919061228e565b60405180910390f35b61032760048036038101906103229190612391565b610806565b60405161033491906123ff565b60405180910390f35b61035760048036038101906103529190612503565b610818565b6040516103649190612495565b60405180910390f35b6103756108d2565b005b61037f6108e6565b005b6103896108f8565b60405161039691906123ff565b60405180910390f35b6103a7610922565b6040516103b49190612339565b60405180910390f35b6103d760048036038101906103d2919061255c565b6109b4565b005b6103f360048036038101906103ee91906126d1565b6109ca565b005b61040f600480360381019061040a9190612391565b6109e7565b60405161041c9190612339565b60405180910390f35b61043f600480360381019061043a9190612754565b610af5565b60405161044c919061228e565b60405180910390f35b61046f600480360381019061046a9190612503565b610b89565b005b600061047c82610c0f565b9050919050565b606060008054610492906127c3565b80601f01602080910402602001604051908101604052809291908181526020018280546104be906127c3565b801561050b5780601f106104e05761010080835404028352916020019161050b565b820191906000526020600020905b8154815290600101906020018083116104ee57829003601f168201915b5050505050905090565b600061052082610c89565b5061052a82610d11565b9050919050565b610543828261053e610d4e565b610d56565b5050565b6000600880549050905090565b600073ffffffffffffffffffffffffffffffffffffffff168273ffffffffffffffffffffffffffffffffffffffff16036105c65760006040517f64a0ae920000000000000000000000000000000000000000000000000000000081526004016105bd91906123ff565b60405180910390fd5b60006105da83836105d5610d4e565b610d68565b90508373ffffffffffffffffffffffffffffffffffffffff168173ffffffffffffffffffffffffffffffffffffffff1614610650578382826040517f64283d7b000000000000000000000000000000000000000000000000000000008152600401610647939291906127f4565b60405180910390fd5b50505050565b600061066183610818565b82106106a65782826040517fa57d13dc00000000000000000000000000000000000000000000000000000000815260040161069d92919061282b565b60405180910390fd5b600660008473ffffffffffffffffffffffffffffffffffffffff1673ffffffffffffffffffffffffffffffffffffffff168152602001908152602001600020600083815260200190815260200160002054905092915050565b610707610d7e565b61070f610e05565b565b610719610d7e565b6000600b600081548092919061072e90612883565b91905055905061073e8282610e68565b5050565b61075d838383604051806020016040528060008152506109ca565b505050565b610775600082610770610d4e565b610d68565b5050565b6000610783610547565b82106107c9576000826040517fa57d13dc0000000000000000000000000000000000000000000000000000000081526004016107c092919061282b565b60405180910390fd5b600882815481106107dd576107dc6128cb565b5b90600052602060002001549050919050565b6000600a60009054906101000a900460ff16905090565b600061081182610c89565b9050919050565b60008073ffffffffffffffffffffffffffffffffffffffff168273ffffffffffffffffffffffffffffffffffffffff160361088b5760006040517f89c62b6400000000000000000000000000000000000000000000000000000000815260040161088291906123ff565b60405180910390fd5b600360008373ffffffffffffffffffffffffffffffffffffffff1673ffffffffffffffffffffffffffffffffffffffff168152602001908152602001600020549050919050565b6108da610d7e565b6108e46000610e86565b565b6108ee610d7e565b6108f6610f4c565b565b6000600a60019054906101000a900473ffffffffffffffffffffffffffffffffffffffff16905090565b606060018054610931906127c3565b80601f016020809104026020016040519081016040528092919081815260200182805461095d906127c3565b80156109aa5780601f1061097f576101008083540402835291602001916109aa565b820191906000526020600020905b81548152906001019060200180831161098d57829003601f168201915b5050505050905090565b6109c66109bf610d4e565b8383610faf565b5050565b6109d5848484610554565b6109e18484848461111e565b50505050565b6060600080600190503073ffffffffffffffffffffffffffffffffffffffff16636352211e856040518263ffffffff1660e01b8152600401610a299190612495565b602060405180830381865afa925050508015610a6357506040513d601f19601f82011682018060405250810190610a60919061290f565b60015b610a705760009050610a75565b809250505b80610ab5576040517f08c379a0000000000000000000000000000000000000000000000000000000008152600401610aac906129ae565b60405180910390fd5b6000610abf6112d5565b905080610acb866112f5565b604051602001610adc929190612a56565b6040516020818303038152906040529350505050919050565b6000600560008473ffffffffffffffffffffffffffffffffffffffff1673ffffffffffffffffffffffffffffffffffffffff16815260200190815260200160002060008373ffffffffffffffffffffffffffffffffffffffff1673ffffffffffffffffffffffffffffffffffffffff16815260200190815260200160002060009054906101000a900460ff16905092915050565b610b91610d7e565b600073ffffffffffffffffffffffffffffffffffffffff168173ffffffffffffffffffffffffffffffffffffffff1603610c035760006040517f1e4fbdf7000000000000000000000000000000000000000000000000000000008152600401610bfa91906123ff565b60405180910390fd5b610c0c81610e86565b50565b60007f780e9d63000000000000000000000000000000000000000000000000000000007bffffffffffffffffffffffffffffffffffffffffffffffffffffffff1916827bffffffffffffffffffffffffffffffffffffffffffffffffffffffff19161480610c825750610c81826113c3565b5b9050919050565b600080610c95836114a5565b9050600073ffffffffffffffffffffffffffffffffffffffff168173ffffffffffffffffffffffffffffffffffffffff1603610d0857826040517f7e273289000000000000000000000000000000000000000000000000000000008152600401610cff9190612495565b60405180910390fd5b80915050919050565b60006004600083815260200190815260200160002060009054906101000a900473ffffffffffffffffffffffffffffffffffffffff169050919050565b600033905090565b610d6383838360016114e2565b505050565b6000610d758484846116a7565b90509392505050565b610d86610d4e565b73ffffffffffffffffffffffffffffffffffffffff16610da46108f8565b73ffffffffffffffffffffffffffffffffffffffff1614610e0357610dc7610d4e565b6040517f118cdaa7000000000000000000000000000000000000000000000000000000008152600401610dfa91906123ff565b60405180910390fd5b565b610e0d6116c5565b6000600a60006101000a81548160ff0219169083151502179055507f5db9ee0a495bf2e6ff9c91a7834c1ba4fdd244a5e8aa4e537bd38aeae4b073aa610e51610d4e565b604051610e5e91906123ff565b60405180910390a1565b610e82828260405180602001604052806000815250611705565b5050565b6000600a60019054906101000a900473ffffffffffffffffffffffffffffffffffffffff16905081600a60016101000a81548173ffffffffffffffffffffffffffffffffffffffff021916908373ffffffffffffffffffffffffffffffffffffffff1602179055508173ffffffffffffffffffffffffffffffffffffffff168173ffffffffffffffffffffffffffffffffffffffff167f8be0079c531659141344cd1fd0a4f28419497f9722a3daafe3b4186f6b6457e060405160405180910390a35050565b610f54611721565b6001600a60006101000a81548160ff0219169083151502179055507f62e78cea01bee320cd4e420270b5ea74000d11b0c9f74754ebdbfc544b05a258610f98610d4e565b604051610fa591906123ff565b60405180910390a1565b600073ffffffffffffffffffffffffffffffffffffffff168273ffffffffffffffffffffffffffffffffffffffff160361102057816040517f5b08ba1800000000000000000000000000000000000000000000000000000000815260040161101791906123ff565b60405180910390fd5b80600560008573ffffffffffffffffffffffffffffffffffffffff1673ffffffffffffffffffffffffffffffffffffffff16815260200190815260200160002060008473ffffffffffffffffffffffffffffffffffffffff1673ffffffffffffffffffffffffffffffffffffffff16815260200190815260200160002060006101000a81548160ff0219169083151502179055508173ffffffffffffffffffffffffffffffffffffffff168373ffffffffffffffffffffffffffffffffffffffff167f17307eab39ab6107e8899845ad3d59bd9653f200f220920489ca2b5937696c3183604051611111919061228e565b60405180910390a3505050565b60008373ffffffffffffffffffffffffffffffffffffffff163b11156112cf578273ffffffffffffffffffffffffffffffffffffffff1663150b7a02611162610d4e565b8685856040518563ffffffff1660e01b81526004016111849493929190612ada565b6020604051808303816000875af19250505080156111c057506040513d601f19601f820116820180604052508101906111bd9190612b3b565b60015b611244573d80600081146111f0576040519150601f19603f3d011682016040523d82523d6000602084013e6111f5565b606091505b50600081510361123c57836040517f64a0ae9200000000000000000000000000000000000000000000000000000000815260040161123391906123ff565b60405180910390fd5b805181602001fd5b63150b7a0260e01b7bffffffffffffffffffffffffffffffffffffffffffffffffffffffff1916817bffffffffffffffffffffffffffffffffffffffffffffffffffffffff1916146112cd57836040517f64a0ae920000000000000000000000000000000000000000000000000000000081526004016112c491906123ff565b60405180910390fd5b505b50505050565b60606040518060a0016040528060658152602001612bfb60659139905090565b60606000600161130484611762565b01905060008167ffffffffffffffff811115611323576113226125a6565b5b6040519080825280601f01601f1916602001820160405280156113555781602001600182028036833780820191505090505b509050600082602001820190505b6001156113b8578080600190039150507f3031323334353637383961626364656600000000000000000000000000000000600a86061a8153600a85816113ac576113ab612b68565b5b04945060008503611363575b819350505050919050565b60007f80ac58cd000000000000000000000000000000000000000000000000000000007bffffffffffffffffffffffffffffffffffffffffffffffffffffffff1916827bffffffffffffffffffffffffffffffffffffffffffffffffffffffff1916148061148e57507f5b5e139f000000000000000000000000000000000000000000000000000000007bffffffffffffffffffffffffffffffffffffffffffffffffffffffff1916827bffffffffffffffffffffffffffffffffffffffffffffffffffffffff1916145b8061149e575061149d826118b5565b5b9050919050565b60006002600083815260200190815260200160002060009054906101000a900473ffffffffffffffffffffffffffffffffffffffff169050919050565b808061151b5750600073ffffffffffffffffffffffffffffffffffffffff168273ffffffffffffffffffffffffffffffffffffffff1614155b1561164f57600061152b84610c89565b9050600073ffffffffffffffffffffffffffffffffffffffff168373ffffffffffffffffffffffffffffffffffffffff161415801561159657508273ffffffffffffffffffffffffffffffffffffffff168173ffffffffffffffffffffffffffffffffffffffff1614155b80156115a957506115a78184610af5565b155b156115eb57826040517fa9fbf51f0000000000000000000000000000000000000000000000000000000081526004016115e291906123ff565b60405180910390fd5b811561164d57838573ffffffffffffffffffffffffffffffffffffffff168273ffffffffffffffffffffffffffffffffffffffff167f8c5be1e5ebec7d5bd14f71427d1e84f3dd0314c0f7b2291e5b200ac8c7c3b92560405160405180910390a45b505b836004600085815260200190815260200160002060006101000a81548173ffffffffffffffffffffffffffffffffffffffff021916908373ffffffffffffffffffffffffffffffffffffffff16021790555050505050565b60006116b1611721565b6116bc84848461191f565b90509392505050565b6116cd6107ef565b611703576040517f8dfc202b00000000000000000000000000000000000000000000000000000000815260040160405180910390fd5b565b61170f8383611a3c565b61171c600084848461111e565b505050565b6117296107ef565b15611760576040517fd93c066500000000000000000000000000000000000000000000000000000000815260040160405180910390fd5b565b600080600090507a184f03e93ff9f4daa797ed6e38ed64bf6a1f01000000000000000083106117c0577a184f03e93ff9f4daa797ed6e38ed64bf6a1f01000000000000000083816117b6576117b5612b68565b5b0492506040810190505b6d04ee2d6d415b85acef810000000083106117fd576d04ee2d6d415b85acef810000000083816117f3576117f2612b68565b5b0492506020810190505b662386f26fc10000831061182c57662386f26fc10000838161182257611821612b68565b5b0492506010810190505b6305f5e1008310611855576305f5e100838161184b5761184a612b68565b5b0492506008810190505b612710831061187a5761271083816118705761186f612b68565b5b0492506004810190505b6064831061189d576064838161189357611892612b68565b5b0492506002810190505b600a83106118ac576001810190505b80915050919050565b60007f01ffc9a7000000000000000000000000000000000000000000000000000000007bffffffffffffffffffffffffffffffffffffffffffffffffffffffff1916827bffffffffffffffffffffffffffffffffffffffffffffffffffffffff1916149050919050565b60008061192d858585611b35565b9050600073ffffffffffffffffffffffffffffffffffffffff168173ffffffffffffffffffffffffffffffffffffffff16036119715761196c84611d4f565b6119b0565b8473ffffffffffffffffffffffffffffffffffffffff168173ffffffffffffffffffffffffffffffffffffffff16146119af576119ae8185611d98565b5b5b600073ffffffffffffffffffffffffffffffffffffffff168573ffffffffffffffffffffffffffffffffffffffff16036119f2576119ed84611ef9565b611a31565b8473ffffffffffffffffffffffffffffffffffffffff168173ffffffffffffffffffffffffffffffffffffffff1614611a3057611a2f8585611fca565b5b5b809150509392505050565b600073ffffffffffffffffffffffffffffffffffffffff168273ffffffffffffffffffffffffffffffffffffffff1603611aae5760006040517f64a0ae92000000000000000000000000000000000000000000000000000000008152600401611aa591906123ff565b60405180910390fd5b6000611abc83836000610d68565b9050600073ffffffffffffffffffffffffffffffffffffffff168173ffffffffffffffffffffffffffffffffffffffff1614611b305760006040517f73c6ac6e000000000000000000000000000000000000000000000000000000008152600401611b2791906123ff565b60405180910390fd5b505050565b600080611b41846114a5565b9050600073ffffffffffffffffffffffffffffffffffffffff168373ffffffffffffffffffffffffffffffffffffffff1614611b8357611b82818486612055565b5b600073ffffffffffffffffffffffffffffffffffffffff168173ffffffffffffffffffffffffffffffffffffffff1614611c1457611bc56000856000806114e2565b6001600360008373ffffffffffffffffffffffffffffffffffffffff1673ffffffffffffffffffffffffffffffffffffffff168152602001908152602001600020600082825403925050819055505b600073ffffffffffffffffffffffffffffffffffffffff168573ffffffffffffffffffffffffffffffffffffffff1614611c97576001600360008773ffffffffffffffffffffffffffffffffffffffff1673ffffffffffffffffffffffffffffffffffffffff168152602001908152602001600020600082825401925050819055505b846002600086815260200190815260200160002060006101000a81548173ffffffffffffffffffffffffffffffffffffffff021916908373ffffffffffffffffffffffffffffffffffffffff160217905550838573ffffffffffffffffffffffffffffffffffffffff168273ffffffffffffffffffffffffffffffffffffffff167fddf252ad1be2c89b69c2b068fc378daa952ba7f163c4a11628f55a4df523b3ef60405160405180910390a4809150509392505050565b6008805490506009600083815260200190815260200160002081905550600881908060018154018082558091505060019003906000526020600020016000909190919091505550565b6000611da383610818565b9050600060076000848152602001908152602001600020549050818114611e88576000600660008673ffffffffffffffffffffffffffffffffffffffff1673ffffffffffffffffffffffffffffffffffffffff168152602001908152602001600020600084815260200190815260200160002054905080600660008773ffffffffffffffffffffffffffffffffffffffff1673ffffffffffffffffffffffffffffffffffffffff168152602001908152602001600020600084815260200190815260200160002081905550816007600083815260200190815260200160002081905550505b6007600084815260200190815260200160002060009055600660008573ffffffffffffffffffffffffffffffffffffffff1673ffffffffffffffffffffffffffffffffffffffff16815260200190815260200160002060008381526020019081526020016000206000905550505050565b60006001600880549050611f0d9190612b97565b9050600060096000848152602001908152602001600020549050600060088381548110611f3d57611f3c6128cb565b5b906000526020600020015490508060088381548110611f5f57611f5e6128cb565b5b906000526020600020018190555081600960008381526020019081526020016000208190555060096000858152602001908152602001600020600090556008805480611fae57611fad612bcb565b5b6001900381819060005260206000200160009055905550505050565b60006001611fd784610818565b611fe19190612b97565b905081600660008573ffffffffffffffffffffffffffffffffffffffff1673ffffffffffffffffffffffffffffffffffffffff168152602001908152602001600020600083815260200190815260200160002081905550806007600084815260200190815260200160002081905550505050565b612060838383612119565b61211457600073ffffffffffffffffffffffffffffffffffffffff168373ffffffffffffffffffffffffffffffffffffffff16036120d557806040517f7e2732890000000000000000000000000000000000000000000000000000000081526004016120cc9190612495565b60405180910390fd5b81816040517f177e802f00000000000000000000000000000000000000000000000000000000815260040161210b92919061282b565b60405180910390fd5b505050565b60008073ffffffffffffffffffffffffffffffffffffffff168373ffffffffffffffffffffffffffffffffffffffff16141580156121d157508273ffffffffffffffffffffffffffffffffffffffff168473ffffffffffffffffffffffffffffffffffffffff16148061219257506121918484610af5565b5b806121d057508273ffffffffffffffffffffffffffffffffffffffff166121b883610d11565b73ffffffffffffffffffffffffffffffffffffffff16145b5b90509392505050565b6000604051905090565b600080fd5b600080fd5b60007fffffffff0000000000000000000000000000000000000000000000000000000082169050919050565b612223816121ee565b811461222e57600080fd5b50565b6000813590506122408161221a565b92915050565b60006020828403121561225c5761225b6121e4565b5b600061226a84828501612231565b91505092915050565b60008115159050919050565b61228881612273565b82525050565b60006020820190506122a3600083018461227f565b92915050565b600081519050919050565b600082825260208201905092915050565b60005b838110156122e35780820151818401526020810190506122c8565b60008484015250505050565b6000601f19601f8301169050919050565b600061230b826122a9565b61231581856122b4565b93506123258185602086016122c5565b61232e816122ef565b840191505092915050565b600060208201905081810360008301526123538184612300565b905092915050565b6000819050919050565b61236e8161235b565b811461237957600080fd5b50565b60008135905061238b81612365565b92915050565b6000602082840312156123a7576123a66121e4565b5b60006123b58482850161237c565b91505092915050565b600073ffffffffffffffffffffffffffffffffffffffff82169050919050565b60006123e9826123be565b9050919050565b6123f9816123de565b82525050565b600060208201905061241460008301846123f0565b92915050565b612423816123de565b811461242e57600080fd5b50565b6000813590506124408161241a565b92915050565b6000806040838503121561245d5761245c6121e4565b5b600061246b85828601612431565b925050602061247c8582860161237c565b9150509250929050565b61248f8161235b565b82525050565b60006020820190506124aa6000830184612486565b92915050565b6000806000606084860312156124c9576124c86121e4565b5b60006124d786828701612431565b93505060206124e886828701612431565b92505060406124f98682870161237c565b9150509250925092565b600060208284031215612519576125186121e4565b5b600061252784828501612431565b91505092915050565b61253981612273565b811461254457600080fd5b50565b60008135905061255681612530565b92915050565b60008060408385031215612573576125726121e4565b5b600061258185828601612431565b925050602061259285828601612547565b9150509250929050565b600080fd5b600080fd5b7f4e487b7100000000000000000000000000000000000000000000000000000000600052604160045260246000fd5b6125de826122ef565b810181811067ffffffffffffffff821117156125fd576125fc6125a6565b5b80604052505050565b60006126106121da565b905061261c82826125d5565b919050565b600067ffffffffffffffff82111561263c5761263b6125a6565b5b612645826122ef565b9050602081019050919050565b82818337600083830152505050565b600061267461266f84612621565b612606565b9050828152602081018484840111156126905761268f6125a1565b5b61269b848285612652565b509392505050565b600082601f8301126126b8576126b761259c565b5b81356126c8848260208601612661565b91505092915050565b600080600080608085870312156126eb576126ea6121e4565b5b60006126f987828801612431565b945050602061270a87828801612431565b935050604061271b8782880161237c565b925050606085013567ffffffffffffffff81111561273c5761273b6121e9565b5b612748878288016126a3565b91505092959194509250565b6000806040838503121561276b5761276a6121e4565b5b600061277985828601612431565b925050602061278a85828601612431565b9150509250929050565b7f4e487b7100000000000000000000000000000000000000000000000000000000600052602260045260246000fd5b600060028204905060018216806127db57607f821691505b6020821081036127ee576127ed612794565b5b50919050565b600060608201905061280960008301866123f0565b6128166020830185612486565b61282360408301846123f0565b949350505050565b600060408201905061284060008301856123f0565b61284d6020830184612486565b9392505050565b7f4e487b7100000000000000000000000000000000000000000000000000000000600052601160045260246000fd5b600061288e8261235b565b91507fffffffffffffffffffffffffffffffffffffffffffffffffffffffffffffffff82036128c0576128bf612854565b5b600182019050919050565b7f4e487b7100000000000000000000000000000000000000000000000000000000600052603260045260246000fd5b6000815190506129098161241a565b92915050565b600060208284031215612925576129246121e4565b5b6000612933848285016128fa565b91505092915050565b7f4552433732314d657461646174613a2055524920717565727920666f72206e6f60008201527f6e6578697374656e7420746f6b656e0000000000000000000000000000000000602082015250565b6000612998602f836122b4565b91506129a38261293c565b604082019050919050565b600060208201905081810360008301526129c78161298b565b9050919050565b600081905092915050565b60006129e4826122a9565b6129ee81856129ce565b93506129fe8185602086016122c5565b80840191505092915050565b7f2f6d657461646174612e6a736f6e000000000000000000000000000000000000600082015250565b6000612a40600e836129ce565b9150612a4b82612a0a565b600e82019050919050565b6000612a6282856129d9565b9150612a6e82846129d9565b9150612a7982612a33565b91508190509392505050565b600081519050919050565b600082825260208201905092915050565b6000612aac82612a85565b612ab68185612a90565b9350612ac68185602086016122c5565b612acf816122ef565b840191505092915050565b6000608082019050612aef60008301876123f0565b612afc60208301866123f0565b612b096040830185612486565b8181036060830152612b1b8184612aa1565b905095945050505050565b600081519050612b358161221a565b92915050565b600060208284031215612b5157612b506121e4565b5b6000612b5f84828501612b26565b91505092915050565b7f4e487b7100000000000000000000000000000000000000000000000000000000600052601260045260246000fd5b6000612ba28261235b565b9150612bad8361235b565b9250828203905081811115612bc557612bc4612854565b5b92915050565b7f4e487b7100000000000000000000000000000000000000000000000000000000600052603160045260246000fdfe68747470733a2f2f736361726c65742d656c6563747269632d626f61722d3337342e6d7970696e6174612e636c6f75642f697066732f516d565a6e76325664734a736e63625a346643516e357a53546e79575a365a5a565670616a46325a3735524b39632fa2646970667358221220e4ece59a5190ea61c332cf83c6ae0aca2eaf54341ed9b81ec80e1fde25fa38af64736f6c63430008140033",
  "linkReferences": {},
  "deployedLinkReferences": {}
}