{
  "_format": "hh-sol-artifact-1",
  "contractName": "VSASummer23NFT",
  "sourceName": "contracts/VSASummer23NFT.sol",
  "abi": [
    {
      "inputs": [
        {
          "internalType": "address",
          "name": "initialOwner",
          "type": "address"
        }
      ],
      "stateMutability": "nonpayable",
      "type": "constructor"
    },
    {
      "inputs": [],
      "name": "ERC721EnumerableForbiddenBatchMint",
      "type": "error"
    },
    {
      "inputs": [
        {
          "internalType": "address",
          "name": "sender",
          "type": "address"
        },
        {
          "internalType": "uint256",
          "name": "tokenId",
          "type": "uint256"
        },
        {
          "internalType": "address",
          "name": "owner",
          "type": "address"
        }
      ],
      "name": "ERC721IncorrectOwner",
      "type": "error"
    },
    {
      "inputs": [
        {
          "internalType": "address",
          "name": "operator",
          "type": "address"
        },
        {
          "internalType": "uint256",
          "name": "tokenId",
          "type": "uint256"
        }
      ],
      "name": "ERC721InsufficientApproval",
      "type": "error"
    },
    {
      "inputs": [
        {
          "internalType": "address",
          "name": "approver",
          "type": "address"
        }
      ],
      "name": "ERC721InvalidApprover",
      "type": "error"
    },
    {
      "inputs": [
        {
          "internalType": "address",
          "name": "operator",
          "type": "address"
        }
      ],
      "name": "ERC721InvalidOperator",
      "type": "error"
    },
    {
      "inputs": [
        {
          "internalType": "address",
          "name": "owner",
          "type": "address"
        }
      ],
      "name": "ERC721InvalidOwner",
      "type": "error"
    },
    {
      "inputs": [
        {
          "internalType": "address",
          "name": "receiver",
          "type": "address"
        }
      ],
      "name": "ERC721InvalidReceiver",
      "type": "error"
    },
    {
      "inputs": [
        {
          "internalType": "address",
          "name": "sender",
          "type": "address"
        }
      ],
      "name": "ERC721InvalidSender",
      "type": "error"
    },
    {
      "inputs": [
        {
          "internalType": "uint256",
          "name": "tokenId",
          "type": "uint256"
        }
      ],
      "name": "ERC721NonexistentToken",
      "type": "error"
    },
    {
      "inputs": [
        {
          "internalType": "address",
          "name": "owner",
          "type": "address"
        },
        {
          "internalType": "uint256",
          "name": "index",
          "type": "uint256"
        }
      ],
      "name": "ERC721OutOfBoundsIndex",
      "type": "error"
    },
    {
      "inputs": [],
      "name": "EnforcedPause",
      "type": "error"
    },
    {
      "inputs": [],
      "name": "ExpectedPause",
      "type": "error"
    },
    {
      "inputs": [
        {
          "internalType": "address",
          "name": "owner",
          "type": "address"
        }
      ],
      "name": "OwnableInvalidOwner",
      "type": "error"
    },
    {
      "inputs": [
        {
          "internalType": "address",
          "name": "account",
          "type": "address"
        }
      ],
      "name": "OwnableUnauthorizedAccount",
      "type": "error"
    },
    {
      "anonymous": false,
      "inputs": [
        {
          "indexed": true,
          "internalType": "address",
          "name": "owner",
          "type": "address"
        },
        {
          "indexed": true,
          "internalType": "address",
          "name": "approved",
          "type": "address"
        },
        {
          "indexed": true,
          "internalType": "uint256",
          "name": "tokenId",
          "type": "uint256"
        }
      ],
      "name": "Approval",
      "type": "event"
    },
    {
      "anonymous": false,
      "inputs": [
        {
          "indexed": true,
          "internalType": "address",
          "name": "owner",
          "type": "address"
        },
        {
          "indexed": true,
          "internalType": "address",
          "name": "operator",
          "type": "address"
        },
        {
          "indexed": false,
          "internalType": "bool",
          "name": "approved",
          "type": "bool"
        }
      ],
      "name": "ApprovalForAll",
      "type": "event"
    },
    {
      "anonymous": false,
      "inputs": [
        {
          "indexed": true,
          "internalType": "address",
          "name": "previousOwner",
          "type": "address"
        },
        {
          "indexed": true,
          "internalType": "address",
          "name": "newOwner",
          "type": "address"
        }
      ],
      "name": "OwnershipTransferred",
      "type": "event"
    },
    {
      "anonymous": false,
      "inputs": [
        {
          "indexed": false,
          "internalType": "address",
          "name": "account",
          "type": "address"
        }
      ],
      "name": "Paused",
      "type": "event"
    },
    {
      "anonymous": false,
      "inputs": [
        {
          "indexed": true,
          "internalType": "address",
          "name": "from",
          "type": "address"
        },
        {
          "indexed": true,
          "internalType": "address",
          "name": "to",
          "type": "address"
        },
        {
          "indexed": true,
          "internalType": "uint256",
          "name": "tokenId",
          "type": "uint256"
        }
      ],
      "name": "Transfer",
      "type": "event"
    },
    {
      "anonymous": false,
      "inputs": [
        {
          "indexed": false,
          "internalType": "address",
          "name": "account",
          "type": "address"
        }
      ],
      "name": "Unpaused",
      "type": "event"
    },
    {
      "inputs": [
        {
          "internalType": "address",
          "name": "to",
          "type": "address"
        },
        {
          "internalType": "uint256",
          "name": "tokenId",
          "type": "uint256"
        }
      ],
      "name": "approve",
      "outputs": [],
      "stateMutability": "nonpayable",
      "type": "function"
    },
    {
      "inputs": [
        {
          "internalType": "address",
          "name": "owner",
          "type": "address"
        }
      ],
      "name": "balanceOf",
      "outputs": [
        {
          "internalType": "uint256",
          "name": "",
          "type": "uint256"
        }
      ],
      "stateMutability": "view",
      "type": "function"
    },
    {
      "inputs": [
        {
          "internalType": "uint256",
          "name": "tokenId",
          "type": "uint256"
        }
      ],
      "name": "burn",
      "outputs": [],
      "stateMutability": "nonpayable",
      "type": "function"
    },
    {
      "inputs": [
        {
          "internalType": "uint256",
          "name": "tokenId",
          "type": "uint256"
        }
      ],
      "name": "getApproved",
      "outputs": [
        {
          "internalType": "address",
          "name": "",
          "type": "address"
        }
      ],
      "stateMutability": "view",
      "type": "function"
    },
    {
      "inputs": [
        {
          "internalType": "address",
          "name": "owner",
          "type": "address"
        },
        {
          "internalType": "address",
          "name": "operator",
          "type": "address"
        }
      ],
      "name": "isApprovedForAll",
      "outputs": [
        {
          "internalType": "bool",
          "name": "",
          "type": "bool"
        }
      ],
      "stateMutability": "view",
      "type": "function"
    },
    {
      "inputs": [],
      "name": "name",
      "outputs": [
        {
          "internalType": "string",
          "name": "",
          "type": "string"
        }
      ],
      "stateMutability": "view",
      "type": "function"
    },
    {
      "inputs": [],
      "name": "owner",
      "outputs": [
        {
          "internalType": "address",
          "name": "",
          "type": "address"
        }
      ],
      "stateMutability": "view",
      "type": "function"
    },
    {
      "inputs": [
        {
          "internalType": "uint256",
          "name": "tokenId",
          "type": "uint256"
        }
      ],
      "name": "ownerOf",
      "outputs": [
        {
          "internalType": "address",
          "name": "",
          "type": "address"
        }
      ],
      "stateMutability": "view",
      "type": "function"
    },
    {
      "inputs": [],
      "name": "pause",
      "outputs": [],
      "stateMutability": "nonpayable",
      "type": "function"
    },
    {
      "inputs": [],
      "name": "paused",
      "outputs": [
        {
          "internalType": "bool",
          "name": "",
          "type": "bool"
        }
      ],
      "stateMutability": "view",
      "type": "function"
    },
    {
      "inputs": [],
      "name": "renounceOwnership",
      "outputs": [],
      "stateMutability": "nonpayable",
      "type": "function"
    },
    {
      "inputs": [
        {
          "internalType": "address",
          "name": "to",
          "type": "address"
        }
      ],
      "name": "safeMint",
      "outputs": [],
      "stateMutability": "nonpayable",
      "type": "function"
    },
    {
      "inputs": [
        {
          "internalType": "address",
          "name": "from",
          "type": "address"
        },
        {
          "internalType": "address",
          "name": "to",
          "type": "address"
        },
        {
          "internalType": "uint256",
          "name": "tokenId",
          "type": "uint256"
        }
      ],
      "name": "safeTransferFrom",
      "outputs": [],
      "stateMutability": "nonpayable",
      "type": "function"
    },
    {
      "inputs": [
        {
          "internalType": "address",
          "name": "from",
          "type": "address"
        },
        {
          "internalType": "address",
          "name": "to",
          "type": "address"
        },
        {
          "internalType": "uint256",
          "name": "tokenId",
          "type": "uint256"
        },
        {
          "internalType": "bytes",
          "name": "data",
          "type": "bytes"
        }
      ],
      "name": "safeTransferFrom",
      "outputs": [],
      "stateMutability": "nonpayable",
      "type": "function"
    },
    {
      "inputs": [
        {
          "internalType": "address",
          "name": "operator",
          "type": "address"
        },
        {
          "internalType": "bool",
          "name": "approved",
          "type": "bool"
        }
      ],
      "name": "setApprovalForAll",
      "outputs": [],
      "stateMutability": "nonpayable",
      "type": "function"
    },
    {
      "inputs": [
        {
          "internalType": "bytes4",
          "name": "interfaceId",
          "type": "bytes4"
        }
      ],
      "name": "supportsInterface",
      "outputs": [
        {
          "internalType": "bool",
          "name": "",
          "type": "bool"
        }
      ],
      "stateMutability": "view",
      "type": "function"
    },
    {
      "inputs": [],
      "name": "symbol",
      "outputs": [
        {
          "internalType": "string",
          "name": "",
          "type": "string"
        }
      ],
      "stateMutability": "view",
      "type": "function"
    },
    {
      "inputs": [
        {
          "internalType": "uint256",
          "name": "index",
          "type": "uint256"
        }
      ],
      "name": "tokenByIndex",
      "outputs": [
        {
          "internalType": "uint256",
          "name": "",
          "type": "uint256"
        }
      ],
      "stateMutability": "view",
      "type": "function"
    },
    {
      "inputs": [
        {
          "internalType": "address",
          "name": "owner",
          "type": "address"
        },
        {
          "internalType": "uint256",
          "name": "index",
          "type": "uint256"
        }
      ],
      "name": "tokenOfOwnerByIndex",
      "outputs": [
        {
          "internalType": "uint256",
          "name": "",
          "type": "uint256"
        }
      ],
      "stateMutability": "view",
      "type": "function"
    },
    {
      "inputs": [
        {
          "internalType": "uint256",
          "name": "tokenId",
          "type": "uint256"
        }
      ],
      "name": "tokenURI",
      "outputs": [
        {
          "internalType": "string",
          "name": "",
          "type": "string"
        }
      ],
      "stateMutability": "view",
      "type": "function"
    },
    {
      "inputs": [],
      "name": "totalSupply",
      "outputs": [
        {
          "internalType": "uint256",
          "name": "",
          "type": "uint256"
        }
      ],
      "stateMutability": "view",
      "type": "function"
    },
    {
      "inputs": [
        {
          "internalType": "address",
          "name": "from",
          "type": "address"
        },
        {
          "internalType": "address",
          "name": "to",
          "type": "address"
        },
        {
          "internalType": "uint256",
          "name": "tokenId",
          "type": "uint256"
        }
      ],
      "name": "transferFrom",
      "outputs": [],
      "stateMutability": "nonpayable",
      "type": "function"
    },
    {
      "inputs": [
        {
          "internalType": "address",
          "name": "newOwner",
          "type": "address"
        }
      ],
      "name": "transferOwnership",
      "outputs": [],
      "stateMutability": "nonpayable",
      "type": "function"
    },
    {
      "inputs": [],
      "name": "unpause",
      "outputs": [],
      "stateMutability": "nonpayable",
      "type": "function"
    }
  ],
  "bytecode": "0x60806040523480156200001157600080fd5b5060405162003139380380620031398339818101604052810190620000379190620002a3565b806040518060400160405280600e81526020017f56534153756d6d657232334e46540000000000000000000000000000000000008152506040518060400160405280600681526020017f56534132332000000000000000000000000000000000000000000000000000008152508160009081620000b591906200054f565b508060019081620000c791906200054f565b5050506000600a60006101000a81548160ff021916908315150217905550600073ffffffffffffffffffffffffffffffffffffffff168173ffffffffffffffffffffffffffffffffffffffff16036200015a5760006040517f1e4fbdf700000000000000000000000000000000000000000000000000000000815260040162000151919062000647565b60405180910390fd5b6200016b816200017360201b60201c565b505062000664565b6000600a60019054906101000a900473ffffffffffffffffffffffffffffffffffffffff16905081600a60016101000a81548173ffffffffffffffffffffffffffffffffffffffff021916908373ffffffffffffffffffffffffffffffffffffffff1602179055508173ffffffffffffffffffffffffffffffffffffffff168173ffffffffffffffffffffffffffffffffffffffff167f8be0079c531659141344cd1fd0a4f28419497f9722a3daafe3b4186f6b6457e060405160405180910390a35050565b600080fd5b600073ffffffffffffffffffffffffffffffffffffffff82169050919050565b60006200026b826200023e565b9050919050565b6200027d816200025e565b81146200028957600080fd5b50565b6000815190506200029d8162000272565b92915050565b600060208284031215620002bc57620002bb62000239565b5b6000620002cc848285016200028c565b91505092915050565b600081519050919050565b7f4e487b7100000000000000000000000000000000000000000000000000000000600052604160045260246000fd5b7f4e487b7100000000000000000000000000000000000000000000000000000000600052602260045260246000fd5b600060028204905060018216806200035757607f821691505b6020821081036200036d576200036c6200030f565b5b50919050565b60008190508160005260206000209050919050565b60006020601f8301049050919050565b600082821b905092915050565b600060088302620003d77fffffffffffffffffffffffffffffffffffffffffffffffffffffffffffffffff8262000398565b620003e3868362000398565b95508019841693508086168417925050509392505050565b6000819050919050565b6000819050919050565b6000620004306200042a6200042484620003fb565b62000405565b620003fb565b9050919050565b6000819050919050565b6200044c836200040f565b620004646200045b8262000437565b848454620003a5565b825550505050565b600090565b6200047b6200046c565b6200048881848462000441565b505050565b5b81811015620004b057620004a460008262000471565b6001810190506200048e565b5050565b601f821115620004ff57620004c98162000373565b620004d48462000388565b81016020851015620004e4578190505b620004fc620004f38562000388565b8301826200048d565b50505b505050565b600082821c905092915050565b6000620005246000198460080262000504565b1980831691505092915050565b60006200053f838362000511565b9150826002028217905092915050565b6200055a82620002d5565b67ffffffffffffffff811115620005765762000575620002e0565b5b6200058282546200033e565b6200058f828285620004b4565b600060209050601f831160018114620005c75760008415620005b2578287015190505b620005be858262000531565b8655506200062e565b601f198416620005d78662000373565b60005b828110156200060157848901518255600182019150602085019450602081019050620005da565b868310156200062157848901516200061d601f89168262000511565b8355505b6001600288020188555050505b505050505050565b62000641816200025e565b82525050565b60006020820190506200065e600083018462000636565b92915050565b612ac580620006746000396000f3fe608060405234801561001057600080fd5b50600436106101585760003560e01c80635c975abb116100c357806395d89b411161007c57806395d89b411461039f578063a22cb465146103bd578063b88d4fde146103d9578063c87b56dd146103f5578063e985e9c514610425578063f2fde38b1461045557610158565b80635c975abb146102ef5780636352211e1461030d57806370a082311461033d578063715018a61461036d5780638456cb59146103775780638da5cb5b1461038157610158565b80632f745c59116101155780632f745c59146102315780633f4ba83a1461026157806340d097c31461026b57806342842e0e1461028757806342966c68146102a35780634f6ccce7146102bf57610158565b806301ffc9a71461015d57806306fdde031461018d578063081812fc146101ab578063095ea7b3146101db57806318160ddd146101f757806323b872dd14610215575b600080fd5b610177600480360381019061017291906121a1565b610471565b60405161018491906121e9565b60405180910390f35b610195610483565b6040516101a29190612294565b60405180910390f35b6101c560048036038101906101c091906122ec565b610515565b6040516101d2919061235a565b60405180910390f35b6101f560048036038101906101f091906123a1565b610531565b005b6101ff610547565b60405161020c91906123f0565b60405180910390f35b61022f600480360381019061022a919061240b565b610554565b005b61024b600480360381019061024691906123a1565b610656565b60405161025891906123f0565b60405180910390f35b6102696106ff565b005b6102856004803603810190610280919061245e565b610711565b005b6102a1600480360381019061029c919061240b565b610742565b005b6102bd60048036038101906102b891906122ec565b610762565b005b6102d960048036038101906102d491906122ec565b610779565b6040516102e691906123f0565b60405180910390f35b6102f76107ef565b60405161030491906121e9565b60405180910390f35b610327600480360381019061032291906122ec565b610806565b604051610334919061235a565b60405180910390f35b6103576004803603810190610352919061245e565b610818565b60405161036491906123f0565b60405180910390f35b6103756108d2565b005b61037f6108e6565b005b6103896108f8565b604051610396919061235a565b60405180910390f35b6103a7610922565b6040516103b49190612294565b60405180910390f35b6103d760048036038101906103d291906124b7565b6109b4565b005b6103f360048036038101906103ee919061262c565b6109ca565b005b61040f600480360381019061040a91906122ec565b6109e7565b60405161041c9190612294565b60405180910390f35b61043f600480360381019061043a91906126af565b610a50565b60405161044c91906121e9565b60405180910390f35b61046f600480360381019061046a919061245e565b610ae4565b005b600061047c82610b6a565b9050919050565b6060600080546104929061271e565b80601f01602080910402602001604051908101604052809291908181526020018280546104be9061271e565b801561050b5780601f106104e05761010080835404028352916020019161050b565b820191906000526020600020905b8154815290600101906020018083116104ee57829003601f168201915b5050505050905090565b600061052082610be4565b5061052a82610c6c565b9050919050565b610543828261053e610ca9565b610cb1565b5050565b6000600880549050905090565b600073ffffffffffffffffffffffffffffffffffffffff168273ffffffffffffffffffffffffffffffffffffffff16036105c65760006040517f64a0ae920000000000000000000000000000000000000000000000000000000081526004016105bd919061235a565b60405180910390fd5b60006105da83836105d5610ca9565b610cc3565b90508373ffffffffffffffffffffffffffffffffffffffff168173ffffffffffffffffffffffffffffffffffffffff1614610650578382826040517f64283d7b0000000000000000000000000000000000000000000000000000000081526004016106479392919061274f565b60405180910390fd5b50505050565b600061066183610818565b82106106a65782826040517fa57d13dc00000000000000000000000000000000000000000000000000000000815260040161069d929190612786565b60405180910390fd5b600660008473ffffffffffffffffffffffffffffffffffffffff1673ffffffffffffffffffffffffffffffffffffffff168152602001908152602001600020600083815260200190815260200160002054905092915050565b610707610cd9565b61070f610d60565b565b610719610cd9565b6000600b600081548092919061072e906127de565b91905055905061073e8282610dc3565b5050565b61075d838383604051806020016040528060008152506109ca565b505050565b610775600082610770610ca9565b610cc3565b5050565b6000610783610547565b82106107c9576000826040517fa57d13dc0000000000000000000000000000000000000000000000000000000081526004016107c0929190612786565b60405180910390fd5b600882815481106107dd576107dc612826565b5b90600052602060002001549050919050565b6000600a60009054906101000a900460ff16905090565b600061081182610be4565b9050919050565b60008073ffffffffffffffffffffffffffffffffffffffff168273ffffffffffffffffffffffffffffffffffffffff160361088b5760006040517f89c62b64000000000000000000000000000000000000000000000000000000008152600401610882919061235a565b60405180910390fd5b600360008373ffffffffffffffffffffffffffffffffffffffff1673ffffffffffffffffffffffffffffffffffffffff168152602001908152602001600020549050919050565b6108da610cd9565b6108e46000610de1565b565b6108ee610cd9565b6108f6610ea7565b565b6000600a60019054906101000a900473ffffffffffffffffffffffffffffffffffffffff16905090565b6060600180546109319061271e565b80601f016020809104026020016040519081016040528092919081815260200182805461095d9061271e565b80156109aa5780601f1061097f576101008083540402835291602001916109aa565b820191906000526020600020905b81548152906001019060200180831161098d57829003601f168201915b5050505050905090565b6109c66109bf610ca9565b8383610f0a565b5050565b6109d5848484610554565b6109e184848484611079565b50505050565b60606109f282610be4565b5060006109fd611230565b90506000815111610a1d5760405180602001604052806000815250610a48565b80610a2784611250565b604051602001610a38929190612891565b6040516020818303038152906040525b915050919050565b6000600560008473ffffffffffffffffffffffffffffffffffffffff1673ffffffffffffffffffffffffffffffffffffffff16815260200190815260200160002060008373ffffffffffffffffffffffffffffffffffffffff1673ffffffffffffffffffffffffffffffffffffffff16815260200190815260200160002060009054906101000a900460ff16905092915050565b610aec610cd9565b600073ffffffffffffffffffffffffffffffffffffffff168173ffffffffffffffffffffffffffffffffffffffff1603610b5e5760006040517f1e4fbdf7000000000000000000000000000000000000000000000000000000008152600401610b55919061235a565b60405180910390fd5b610b6781610de1565b50565b60007f780e9d63000000000000000000000000000000000000000000000000000000007bffffffffffffffffffffffffffffffffffffffffffffffffffffffff1916827bffffffffffffffffffffffffffffffffffffffffffffffffffffffff19161480610bdd5750610bdc8261131e565b5b9050919050565b600080610bf083611400565b9050600073ffffffffffffffffffffffffffffffffffffffff168173ffffffffffffffffffffffffffffffffffffffff1603610c6357826040517f7e273289000000000000000000000000000000000000000000000000000000008152600401610c5a91906123f0565b60405180910390fd5b80915050919050565b60006004600083815260200190815260200160002060009054906101000a900473ffffffffffffffffffffffffffffffffffffffff169050919050565b600033905090565b610cbe838383600161143d565b505050565b6000610cd0848484611602565b90509392505050565b610ce1610ca9565b73ffffffffffffffffffffffffffffffffffffffff16610cff6108f8565b73ffffffffffffffffffffffffffffffffffffffff1614610d5e57610d22610ca9565b6040517f118cdaa7000000000000000000000000000000000000000000000000000000008152600401610d55919061235a565b60405180910390fd5b565b610d68611620565b6000600a60006101000a81548160ff0219169083151502179055507f5db9ee0a495bf2e6ff9c91a7834c1ba4fdd244a5e8aa4e537bd38aeae4b073aa610dac610ca9565b604051610db9919061235a565b60405180910390a1565b610ddd828260405180602001604052806000815250611660565b5050565b6000600a60019054906101000a900473ffffffffffffffffffffffffffffffffffffffff16905081600a60016101000a81548173ffffffffffffffffffffffffffffffffffffffff021916908373ffffffffffffffffffffffffffffffffffffffff1602179055508173ffffffffffffffffffffffffffffffffffffffff168173ffffffffffffffffffffffffffffffffffffffff167f8be0079c531659141344cd1fd0a4f28419497f9722a3daafe3b4186f6b6457e060405160405180910390a35050565b610eaf61167c565b6001600a60006101000a81548160ff0219169083151502179055507f62e78cea01bee320cd4e420270b5ea74000d11b0c9f74754ebdbfc544b05a258610ef3610ca9565b604051610f00919061235a565b60405180910390a1565b600073ffffffffffffffffffffffffffffffffffffffff168273ffffffffffffffffffffffffffffffffffffffff1603610f7b57816040517f5b08ba18000000000000000000000000000000000000000000000000000000008152600401610f72919061235a565b60405180910390fd5b80600560008573ffffffffffffffffffffffffffffffffffffffff1673ffffffffffffffffffffffffffffffffffffffff16815260200190815260200160002060008473ffffffffffffffffffffffffffffffffffffffff1673ffffffffffffffffffffffffffffffffffffffff16815260200190815260200160002060006101000a81548160ff0219169083151502179055508173ffffffffffffffffffffffffffffffffffffffff168373ffffffffffffffffffffffffffffffffffffffff167f17307eab39ab6107e8899845ad3d59bd9653f200f220920489ca2b5937696c318360405161106c91906121e9565b60405180910390a3505050565b60008373ffffffffffffffffffffffffffffffffffffffff163b111561122a578273ffffffffffffffffffffffffffffffffffffffff1663150b7a026110bd610ca9565b8685856040518563ffffffff1660e01b81526004016110df949392919061290a565b6020604051808303816000875af192505050801561111b57506040513d601f19601f82011682018060405250810190611118919061296b565b60015b61119f573d806000811461114b576040519150601f19603f3d011682016040523d82523d6000602084013e611150565b606091505b50600081510361119757836040517f64a0ae9200000000000000000000000000000000000000000000000000000000815260040161118e919061235a565b60405180910390fd5b805181602001fd5b63150b7a0260e01b7bffffffffffffffffffffffffffffffffffffffffffffffffffffffff1916817bffffffffffffffffffffffffffffffffffffffffffffffffffffffff19161461122857836040517f64a0ae9200000000000000000000000000000000000000000000000000000000815260040161121f919061235a565b60405180910390fd5b505b50505050565b60606040518060a0016040528060658152602001612a2b60659139905090565b60606000600161125f846116bd565b01905060008167ffffffffffffffff81111561127e5761127d612501565b5b6040519080825280601f01601f1916602001820160405280156112b05781602001600182028036833780820191505090505b509050600082602001820190505b600115611313578080600190039150507f3031323334353637383961626364656600000000000000000000000000000000600a86061a8153600a858161130757611306612998565b5b049450600085036112be575b819350505050919050565b60007f80ac58cd000000000000000000000000000000000000000000000000000000007bffffffffffffffffffffffffffffffffffffffffffffffffffffffff1916827bffffffffffffffffffffffffffffffffffffffffffffffffffffffff191614806113e957507f5b5e139f000000000000000000000000000000000000000000000000000000007bffffffffffffffffffffffffffffffffffffffffffffffffffffffff1916827bffffffffffffffffffffffffffffffffffffffffffffffffffffffff1916145b806113f957506113f882611810565b5b9050919050565b60006002600083815260200190815260200160002060009054906101000a900473ffffffffffffffffffffffffffffffffffffffff169050919050565b80806114765750600073ffffffffffffffffffffffffffffffffffffffff168273ffffffffffffffffffffffffffffffffffffffff1614155b156115aa57600061148684610be4565b9050600073ffffffffffffffffffffffffffffffffffffffff168373ffffffffffffffffffffffffffffffffffffffff16141580156114f157508273ffffffffffffffffffffffffffffffffffffffff168173ffffffffffffffffffffffffffffffffffffffff1614155b801561150457506115028184610a50565b155b1561154657826040517fa9fbf51f00000000000000000000000000000000000000000000000000000000815260040161153d919061235a565b60405180910390fd5b81156115a857838573ffffffffffffffffffffffffffffffffffffffff168273ffffffffffffffffffffffffffffffffffffffff167f8c5be1e5ebec7d5bd14f71427d1e84f3dd0314c0f7b2291e5b200ac8c7c3b92560405160405180910390a45b505b836004600085815260200190815260200160002060006101000a81548173ffffffffffffffffffffffffffffffffffffffff021916908373ffffffffffffffffffffffffffffffffffffffff16021790555050505050565b600061160c61167c565b61161784848461187a565b90509392505050565b6116286107ef565b61165e576040517f8dfc202b00000000000000000000000000000000000000000000000000000000815260040160405180910390fd5b565b61166a8383611997565b6116776000848484611079565b505050565b6116846107ef565b156116bb576040517fd93c066500000000000000000000000000000000000000000000000000000000815260040160405180910390fd5b565b600080600090507a184f03e93ff9f4daa797ed6e38ed64bf6a1f010000000000000000831061171b577a184f03e93ff9f4daa797ed6e38ed64bf6a1f010000000000000000838161171157611710612998565b5b0492506040810190505b6d04ee2d6d415b85acef81000000008310611758576d04ee2d6d415b85acef8100000000838161174e5761174d612998565b5b0492506020810190505b662386f26fc10000831061178757662386f26fc10000838161177d5761177c612998565b5b0492506010810190505b6305f5e10083106117b0576305f5e10083816117a6576117a5612998565b5b0492506008810190505b61271083106117d55761271083816117cb576117ca612998565b5b0492506004810190505b606483106117f857606483816117ee576117ed612998565b5b0492506002810190505b600a8310611807576001810190505b80915050919050565b60007f01ffc9a7000000000000000000000000000000000000000000000000000000007bffffffffffffffffffffffffffffffffffffffffffffffffffffffff1916827bffffffffffffffffffffffffffffffffffffffffffffffffffffffff1916149050919050565b600080611888858585611a90565b9050600073ffffffffffffffffffffffffffffffffffffffff168173ffffffffffffffffffffffffffffffffffffffff16036118cc576118c784611caa565b61190b565b8473ffffffffffffffffffffffffffffffffffffffff168173ffffffffffffffffffffffffffffffffffffffff161461190a576119098185611cf3565b5b5b600073ffffffffffffffffffffffffffffffffffffffff168573ffffffffffffffffffffffffffffffffffffffff160361194d5761194884611e54565b61198c565b8473ffffffffffffffffffffffffffffffffffffffff168173ffffffffffffffffffffffffffffffffffffffff161461198b5761198a8585611f25565b5b5b809150509392505050565b600073ffffffffffffffffffffffffffffffffffffffff168273ffffffffffffffffffffffffffffffffffffffff1603611a095760006040517f64a0ae92000000000000000000000000000000000000000000000000000000008152600401611a00919061235a565b60405180910390fd5b6000611a1783836000610cc3565b9050600073ffffffffffffffffffffffffffffffffffffffff168173ffffffffffffffffffffffffffffffffffffffff1614611a8b5760006040517f73c6ac6e000000000000000000000000000000000000000000000000000000008152600401611a82919061235a565b60405180910390fd5b505050565b600080611a9c84611400565b9050600073ffffffffffffffffffffffffffffffffffffffff168373ffffffffffffffffffffffffffffffffffffffff1614611ade57611add818486611fb0565b5b600073ffffffffffffffffffffffffffffffffffffffff168173ffffffffffffffffffffffffffffffffffffffff1614611b6f57611b2060008560008061143d565b6001600360008373ffffffffffffffffffffffffffffffffffffffff1673ffffffffffffffffffffffffffffffffffffffff168152602001908152602001600020600082825403925050819055505b600073ffffffffffffffffffffffffffffffffffffffff168573ffffffffffffffffffffffffffffffffffffffff1614611bf2576001600360008773ffffffffffffffffffffffffffffffffffffffff1673ffffffffffffffffffffffffffffffffffffffff168152602001908152602001600020600082825401925050819055505b846002600086815260200190815260200160002060006101000a81548173ffffffffffffffffffffffffffffffffffffffff021916908373ffffffffffffffffffffffffffffffffffffffff160217905550838573ffffffffffffffffffffffffffffffffffffffff168273ffffffffffffffffffffffffffffffffffffffff167fddf252ad1be2c89b69c2b068fc378daa952ba7f163c4a11628f55a4df523b3ef60405160405180910390a4809150509392505050565b6008805490506009600083815260200190815260200160002081905550600881908060018154018082558091505060019003906000526020600020016000909190919091505550565b6000611cfe83610818565b9050600060076000848152602001908152602001600020549050818114611de3576000600660008673ffffffffffffffffffffffffffffffffffffffff1673ffffffffffffffffffffffffffffffffffffffff168152602001908152602001600020600084815260200190815260200160002054905080600660008773ffffffffffffffffffffffffffffffffffffffff1673ffffffffffffffffffffffffffffffffffffffff168152602001908152602001600020600084815260200190815260200160002081905550816007600083815260200190815260200160002081905550505b6007600084815260200190815260200160002060009055600660008573ffffffffffffffffffffffffffffffffffffffff1673ffffffffffffffffffffffffffffffffffffffff16815260200190815260200160002060008381526020019081526020016000206000905550505050565b60006001600880549050611e6891906129c7565b9050600060096000848152602001908152602001600020549050600060088381548110611e9857611e97612826565b5b906000526020600020015490508060088381548110611eba57611eb9612826565b5b906000526020600020018190555081600960008381526020019081526020016000208190555060096000858152602001908152602001600020600090556008805480611f0957611f086129fb565b5b6001900381819060005260206000200160009055905550505050565b60006001611f3284610818565b611f3c91906129c7565b905081600660008573ffffffffffffffffffffffffffffffffffffffff1673ffffffffffffffffffffffffffffffffffffffff168152602001908152602001600020600083815260200190815260200160002081905550806007600084815260200190815260200160002081905550505050565b611fbb838383612074565b61206f57600073ffffffffffffffffffffffffffffffffffffffff168373ffffffffffffffffffffffffffffffffffffffff160361203057806040517f7e27328900000000000000000000000000000000000000000000000000000000815260040161202791906123f0565b60405180910390fd5b81816040517f177e802f000000000000000000000000000000000000000000000000000000008152600401612066929190612786565b60405180910390fd5b505050565b60008073ffffffffffffffffffffffffffffffffffffffff168373ffffffffffffffffffffffffffffffffffffffff161415801561212c57508273ffffffffffffffffffffffffffffffffffffffff168473ffffffffffffffffffffffffffffffffffffffff1614806120ed57506120ec8484610a50565b5b8061212b57508273ffffffffffffffffffffffffffffffffffffffff1661211383610c6c565b73ffffffffffffffffffffffffffffffffffffffff16145b5b90509392505050565b6000604051905090565b600080fd5b600080fd5b60007fffffffff0000000000000000000000000000000000000000000000000000000082169050919050565b61217e81612149565b811461218957600080fd5b50565b60008135905061219b81612175565b92915050565b6000602082840312156121b7576121b661213f565b5b60006121c58482850161218c565b91505092915050565b60008115159050919050565b6121e3816121ce565b82525050565b60006020820190506121fe60008301846121da565b92915050565b600081519050919050565b600082825260208201905092915050565b60005b8381101561223e578082015181840152602081019050612223565b60008484015250505050565b6000601f19601f8301169050919050565b600061226682612204565b612270818561220f565b9350612280818560208601612220565b6122898161224a565b840191505092915050565b600060208201905081810360008301526122ae818461225b565b905092915050565b6000819050919050565b6122c9816122b6565b81146122d457600080fd5b50565b6000813590506122e6816122c0565b92915050565b6000602082840312156123025761230161213f565b5b6000612310848285016122d7565b91505092915050565b600073ffffffffffffffffffffffffffffffffffffffff82169050919050565b600061234482612319565b9050919050565b61235481612339565b82525050565b600060208201905061236f600083018461234b565b92915050565b61237e81612339565b811461238957600080fd5b50565b60008135905061239b81612375565b92915050565b600080604083850312156123b8576123b761213f565b5b60006123c68582860161238c565b92505060206123d7858286016122d7565b9150509250929050565b6123ea816122b6565b82525050565b600060208201905061240560008301846123e1565b92915050565b6000806000606084860312156124245761242361213f565b5b60006124328682870161238c565b93505060206124438682870161238c565b9250506040612454868287016122d7565b9150509250925092565b6000602082840312156124745761247361213f565b5b60006124828482850161238c565b91505092915050565b612494816121ce565b811461249f57600080fd5b50565b6000813590506124b18161248b565b92915050565b600080604083850312156124ce576124cd61213f565b5b60006124dc8582860161238c565b92505060206124ed858286016124a2565b9150509250929050565b600080fd5b600080fd5b7f4e487b7100000000000000000000000000000000000000000000000000000000600052604160045260246000fd5b6125398261224a565b810181811067ffffffffffffffff8211171561255857612557612501565b5b80604052505050565b600061256b612135565b90506125778282612530565b919050565b600067ffffffffffffffff82111561259757612596612501565b5b6125a08261224a565b9050602081019050919050565b82818337600083830152505050565b60006125cf6125ca8461257c565b612561565b9050828152602081018484840111156125eb576125ea6124fc565b5b6125f68482856125ad565b509392505050565b600082601f830112612613576126126124f7565b5b81356126238482602086016125bc565b91505092915050565b600080600080608085870312156126465761264561213f565b5b60006126548782880161238c565b94505060206126658782880161238c565b9350506040612676878288016122d7565b925050606085013567ffffffffffffffff81111561269757612696612144565b5b6126a3878288016125fe565b91505092959194509250565b600080604083850312156126c6576126c561213f565b5b60006126d48582860161238c565b92505060206126e58582860161238c565b9150509250929050565b7f4e487b7100000000000000000000000000000000000000000000000000000000600052602260045260246000fd5b6000600282049050600182168061273657607f821691505b602082108103612749576127486126ef565b5b50919050565b6000606082019050612764600083018661234b565b61277160208301856123e1565b61277e604083018461234b565b949350505050565b600060408201905061279b600083018561234b565b6127a860208301846123e1565b9392505050565b7f4e487b7100000000000000000000000000000000000000000000000000000000600052601160045260246000fd5b60006127e9826122b6565b91507fffffffffffffffffffffffffffffffffffffffffffffffffffffffffffffffff820361281b5761281a6127af565b5b600182019050919050565b7f4e487b7100000000000000000000000000000000000000000000000000000000600052603260045260246000fd5b600081905092915050565b600061286b82612204565b6128758185612855565b9350612885818560208601612220565b80840191505092915050565b600061289d8285612860565b91506128a98284612860565b91508190509392505050565b600081519050919050565b600082825260208201905092915050565b60006128dc826128b5565b6128e681856128c0565b93506128f6818560208601612220565b6128ff8161224a565b840191505092915050565b600060808201905061291f600083018761234b565b61292c602083018661234b565b61293960408301856123e1565b818103606083015261294b81846128d1565b905095945050505050565b60008151905061296581612175565b92915050565b6000602082840312156129815761298061213f565b5b600061298f84828501612956565b91505092915050565b7f4e487b7100000000000000000000000000000000000000000000000000000000600052601260045260246000fd5b60006129d2826122b6565b91506129dd836122b6565b92508282039050818111156129f5576129f46127af565b5b92915050565b7f4e487b7100000000000000000000000000000000000000000000000000000000600052603160045260246000fdfe68747470733a2f2f736361726c65742d656c6563747269632d626f61722d3337342e6d7970696e6174612e636c6f75642f697066732f516d635a544179373455696e345a3452535746326f7347345562625059727267425738614a3568506f61484531782fa26469706673582212208690ceaad313c3bdef9436f58dd6f4d0a76b02b8a0d0e0a456c153f3d6b9120264736f6c63430008140033",
  "linkReferences": {},
  "deployedLinkReferences": {}
}